:020000040800F2
:1000000048070020A1010008E52B0008D9280008B6
:10001000E12B000869030008D53200080000000049
:10002000000000000000000000000000E92B0008B4
:10003000D903000800000000E72B0008ED2B0008A2
:10004000BB010008BB010008BB010008BB010008A0
:10005000BB010008BB010008BB010008BB01000890
:10006000BB010008BB010008BB010008BB01000880
:10007000BB010008BB010008BB010008BB01000870
:10008000BB010008BB010008BB010008BB01000860
:10009000BB010008BB010008BB010008BB01000850
:1000A000BB010008BB010008BB010008BB01000840
:1000B000BB010008BB010008BB010008BB01000830
:1000C000BB010008BB010008BB010008BB01000820
:1000D000BB010008BB010008BB010008BB01000810
:1000E000BB010008BB010008BB01000800000000C4
:1000F0000000000000000000000000000000000000
:10010000000000000000000000000000BB0100082B
:10011000BB010008BB010008BB0100080000000093
:10012000BB010008BB010008BB010008BB010008BF
:10013000BB010008000000000000000000000000FB
:10014000BB010008BB010008000000000000000027
:10015000000000000000000000000000000000009F
:100160000000000000000000BB010008BB01000807
:10017000BB010008000000000000000000000000BB
:1001800000000000BB010008DFF810D000F08EF87E
:100190000048004705360008AFF3008048070020FC
:1001A0000648804706480047FEE7FEE7FEE7FEE711
:1001B000FEE7FEE7FEE7FEE7FEE7FEE78D2C000820
:1001C000890100082DE9F05F0546002092469B4614
:1001D00088460646814640241BE02846414647465D
:1001E000224600F020F853465A46C01A914110D3D7
:1001F00011461846224600F04AF82D1A67EB01080E
:100200004F4622460120002100F041F817EB00097B
:100210004E41201EA4F10104DFDC484631462A4647
:100220004346BDE8F09F202A04DB203A21FA02F081
:100230000021704721FA02F3D040C2F12002914020
:1002400008431946704740EA01039B0703D009E0C1
:1002500008C9121F08C0042AFAD203E011F8013BB2
:1002600000F8013B521EF9D27047D2B201E000F80B
:10027000012B491EFBD270470022F6E710B513464A
:100280000A4604461946FFF7F0FF204610BD202A13
:1002900004DB203A00FA02F1002070479140C2F1DD
:1002A000200320FA03F3194390407047064C074D92
:1002B00006E0E06840F0010394E807009847103436
:1002C000AC42F6D3FFF764FFFC3C00081C3D00087D
:1002D00070B5044600252068806800F003000128FE
:1002E00006D12068006800F0010008B1012000E09C
:1002F000002080B32068806800F00D00012800D144
:1003000000E0002050B100BF2068806840F002008B
:100310002168886003202168086009E0206C40F0B3
:1003200010002064606C40F001006064012070BD2A
:1003300000F0D9FF05460FE000F0D5FF401B022872
:100340000AD9206C40F010002064606C40F001007D
:1003500060640120EBE705E02068806800F00100A0
:100360000028E9D10020E2E700BFFEE70D4A01685E
:1003700091420BD20C4A0168891A1422B1FBF2F1A6
:100380008900016408490839C1630AE0054A016827
:10039000891A1422B1FBF2F189000164014908397C
:1003A000C1637047080402400800024030B590F86D
:1003B00040500124AC40C56B6C60046863604468C5
:1003C000102C04D10468A2600468E16003E00468B2
:1003D000A1600468E26030BD7047704770B594B0AA
:1003E00002460B460024186800B100BF1068B0F147
:1003F000A04F02D14648009002E04FF0A04000908C
:10040000009810B9012014B070BD00BF92F83C00F4
:10041000012801D10220F6E7012082F83C0000BF4C
:1004200010688068C0F38000002864D1009880685C
:10043000C0F3800000285ED13649186890B392F866
:1004400030005D6845EA40308D6825F460452843FA
:1004500088601068806800F00300012806D11068E9
:10046000006800F0010008B1012000E00020002831
:1004700046D10098806800F00300012806D100985A
:10048000006800F0010008B1012000E0002088BBF6
:100490009D68186828438D6840F61F76B543284349
:1004A00088602DE0FFE7886820F46040886010686D
:1004B000806800F00300012806D11068006800F091
:1004C000010008B1012000E0002098B90098806880
:1004D00000F00300012806D10098006800F0010038
:1004E00008B1012000E0002020B9886840F61F759F
:1004F000A843886004E0106C40F0200010640124E0
:1005000000BF002082F83C0000BF20467BE70000CF
:100510000001005000030050F0B595B002460025E0
:1005200000200090C868012800D000E000BF00BF94
:1005300092F83C00012802D1022015B0F0BD012044
:1005400082F83C0000BF10688068C0F3800000287B
:1005500079D14868052812D21068006B0E7906EB35
:10056000460677001F26BE40B0430F7907EB4707CA
:100570007F000E68BE4030431668306343E0486831
:100580000A2814D21068406B0E79761F06EB4606D7
:1005900077001F26BE40B0430F797F1F07EB470748
:1005A0007F000E68BE403043166870632BE04868D9
:1005B0000F2814D21068806B0E790A3E06EB4606AF
:1005C00077001F26BE40B0430F790A3F07EB47076D
:1005D0007F000E68BE4030431668B06313E01068B9
:1005E000C06B0E790F3E06EB460677001F26BE4015
:1005F000B0430F790F3F07EB47077F000E68BE40FF
:1006000030431668F0631068806800F00C0008B191
:10061000012000E00020002870D108680A2813D3C8
:10062000106880690E780A3E06EB46070726BE4032
:10063000B0430F780A3F07EB47078E68BE40304350
:100640001668B06110E05FE1106840690E7806EB53
:1006500046070726BE40B0430F7807EB47078E6872
:10066000BE4030431668706148691668F668C6F384
:10067000C106760000FA06F40869012806D00228AF
:1006800012D003281ED0042839D129E01068006E4A
:10069000A34E30400E784FF0004747EA8666264367
:1006A00030431668306663E01068406E9C4E304000
:1006B0000E784FF0004747EA8666264330431668B7
:1006C000706655E01068806E954E30400E784FF0A1
:1006D000004747EA8666264330431668B06647E01F
:1006E0001068C06E8E4E30400E784FF0004747EADB
:1006F0008666264330431668F06639E039E01068B4
:10070000006E00F0F8400E78B0EB866F05D11068EF
:10071000006E20F00040166830661068406E00F0F1
:10072000F8400E78B0EB866F05D11068406E20F06F
:100730000040166870661068806E00F0F8400E7811
:10074000B0EB866F05D11068806E20F0004016680F
:10075000B0661068C06E00F0F8400E78B0EB866F9F
:1007600005D11068C06E20F000401668F06600BF2A
:1007700000BF1068806800F00300012806D11068EF
:10078000006800F0010008B1012000E0002000280E
:100790007ED1C86801280AD01068D0F8B0000F7860
:1007A0000126BE40B0431668C6F8B00032E01068BB
:1007B000D0F8B0000F780126BE4030431668C6F866
:1007C000B00008680A2813D31068866908780938C9
:1007D00000EB40070720B84026EA00000E78093EEB
:1007E00006EB46068F68B74038431668B06111E0E3
:1007F000106840690E78761C06EB46070726BE4057
:10080000B0430F787F1C07EB47078E68BE4030432C
:1008100016687061434B0868102803D1986800F48B
:10082000000070B10868112803D1986800F080704A
:1008300038B1086812286CD1986800F4800000284C
:1008400067D11068B0F1A04F02D13748019002E0A3
:100850004FF0A04001901068806800F0030001286C
:1008600006D11068006800F0010008B1012000E026
:10087000002070BB019880B10198806800F00300EF
:10088000012808D10198006800F0010018B100E0CB
:1008900033E0012000E00020D8B90868102819D101
:1008A0001068B0F1A04F15D1986840F4000098602E
:1008B0001E4800681E4EB0FBF6F000EB80004000C2
:1008C000009002E00098401E009000980028F9D1A6
:1008D0001FE013E00868112808D11068B0F1A04F9C
:1008E00004D1986840F08070986012E0086812287F
:1008F0000FD1986840F4800098600AE0106C40F0D6
:1009000020001064012504E0106C40F02000106409
:10091000012500BF002082F83C0000BF28460CE6FD
:1009200000F0FF830003005000010050FC00002095
:1009300040420F00F0B595B0044600260025002087
:10094000009014B9012015B0F0BD206918B1202025
:10095000005D00B100BF206C00F01000002853D1F2
:10096000206C98BB002060640021E164A06484F8DE
:100970003C00204600F008F92068806800F08050B4
:1009800020BB2046FFF7A4FC0646206C00F01000B8
:10099000E0B9DEB9206C20F4885040F002002064F9
:1009A0002068806820F04050216888602068806856
:1009B00040F08050216888606E4800686E49B0FB46
:1009C000F1F000EB80004000009003E005E00098AB
:1009D000401E009000980028F9D12068806800F03F
:1009E000805030B12068806800F00050B0F1005FA6
:1009F0000AD1206C20F0020040F010002064606CEE
:100A000040F0010060640126206C00F01000002816
:100A100073D1002EFCD120688068C0F380000028CC
:100A2000F6D1206C20F4807040F002002064534F17
:100A30002068B0F1A04F02D15148019002E04FF080
:100A4000A04001902068806800F00300012806D1D2
:100A50002068006800F0010008B1012000E00020DB
:100A6000B0B9019870B10198806800F003000128C6
:100A700006D10198006800F0010008B1012000E0F3
:100A8000002028B9B86820F4403061680843B86095
:100A9000606B012802D04FF4805100E00021607E9D
:100AA00041EA4030E1680843A1680843054320203B
:100AB000005D012813D1607E38B9A08C401E4FF430
:100AC000803141EA4040054309E0206C20F00200FB
:100AD00040F020002064606C40F001006064A06A77
:100AE000012803D0D4E90A0108430543206880683F
:100AF00000F00C0010B1012001E032E0002068B9E4
:100B00002068C06844F2020188432168C860207EE2
:100B1000810394F8300041EA400005432068C06832
:100B20001849084028432168C8602069012809D174
:100B30002068006B20F00F00E169491E084321681E
:100B4000086305E02068006B20F00F00216808634F
:100B500000206064206C20F0020040F0010020645E
:100B600006E0206C20F0020040F010002064012616
:100B70003046E8E6FC00002040420F000003005031
:100B80000001005007C0F0FF10B586B004461421E4
:100B900001A8FFF771FB2068B0F1A04F2FD13E48AC
:100BA0000068401C3C4908600846006801280DD1D7
:100BB00000BF3A48406940F08050384948610846D3
:100BC000406900F08050009000BF00BF00BF334874
:100BD000406940F40020314948610846406900F40A
:100BE0000020009000BF00BF0C2001900320029065
:100BF0000020039001A92A4800F084FA49E029491D
:100C00002068884245D124480068401C2249086079
:100C10000846006801280DD100BF2048406940F017
:100C200080501E4948610846406900F0805000909D
:100C300000BF00BF00BF1948406940F400201749B9
:100C400048610846406900F40020009000BF00BFE2
:100C500000BF0846406940F40030486108464069DA
:100C600000F40030009000BF00BF0320019002900C
:100C70000020039001A90A4800F044FA40200190A6
:100C8000032002900020039001A94FF0904000F053
:100C900039FA06B010BD0000EC0000200010024040
:100CA0000008004800010050F0B504460A462168DB
:100CB00094F82050012D01D0022D74D1D1F80002FA
:100CC00040F00100C1F80002107D00F01F06012075
:100CD00000FA06F3D1F81C029843C1F81C02D0694F
:100CE000C8B9D1F80C029843C1F80C02908880B2C0
:100CF000968940EA064601F51070576940F837605A
:100D0000108880B2168940EA064601F510705769CE
:100D100000EBC7004660D069012819D1D1F80C0258
:100D20001843C1F80C02908880B2168840EA064643
:100D300001F51070576940F83760908980B21689C4
:100D400040EA064601F51070576900EBC70046609F
:100D5000906928B9D1F804029843C1F8040204E06C
:100D6000D1F804021843C1F80402106928B9D1F877
:100D700014029843C1F8140204E0D1F81402184395
:100D8000C1F81402106A012804D1D1F81C021843DA
:100D9000C1F81C02D1F8000220F00100C1F80002E5
:100DA0000020F0BDFFE7606A40F48020606201200F
:100DB000F7E7704770B504460CB9012070BD94F890
:100DC000200010B9204600F0AFF82068006820F03D
:100DD00002002168086000F086FA05460DE000F088
:100DE00082FA401B0A2808D9606A40F40030606229
:100DF000052084F820000120E0E72068406800F02A
:100E000002000028EBD12068006840F00100216852
:100E1000086000F068FA05460DE000F064FA401B37
:100E20000A2808D9606A40F400306062052084F81E
:100E300020000120C2E72068406800F0010000287F
:100E4000EBD0207E012806D12068006840F08000A9
:100E50002168086005E02068006820F080002168B3
:100E60000860607E012806D12068006840F04000DC
:100E70002168086005E02068006820F040002168D3
:100E80000860A07E012806D12068006840F020009C
:100E90002168086005E02068006820F020002168D3
:100EA0000860E07E012806D12068006820F010006C
:100EB0002168086005E02068006840F010002168A3
:100EC0000860207F012806D12068006840F00800F3
:100ED0002168086005E02068006820F008002168AB
:100EE0000860607F012806D12068006840F0040097
:100EF0002168086005E02068006820F0040021688F
:100F00000860D4E902010843216908436169084384
:100F10006168491E08432168C861002060620120A1
:100F200084F82000002049E710B586B0044614215B
:100F300001A8FFF7A1F92249206888423DD100BFEE
:100F40002048C06940F000701E49C8610846C06969
:100F500000F00070009000BF00BF00BF084640696D
:100F600040F4802048610846406900F480200090E9
:100F700000BF00BF4FF4407001900220029000209B
:100F80000390032004900920059001A90E4800F069
:100F9000B9F84FF480700190122002900120039064
:100FA000032004900920059001A9074800F0AAF841
:100FB00001221102054800F091F906B010BD0000B1
:100FC000006400400010024000040048000800488F
:100FD00070477047704770B5044694F820000128A8
:100FE00022D1022084F820002068006820F001004F
:100FF0002168086000F077F905460DE000F073F90C
:10100000401B0A2808D9606A40F40030606205205D
:1010100084F82000012070BD2068406800F00100C5
:101020000028EBD16062F6E7606A40F4002060625D
:101030000120F0E7704770477047704770B504466D
:1010400000250CB9012070BD022084F82100206821
:10105000056843F6F0708543D4E901010843E1686F
:1010600008432169084361690843A1690843E169AC
:1010700008430543206805602046FFF777F9002004
:10108000A063012084F82100002084F8200000BF24
:10109000D9E72DE9F04104460D4616461F464FF0AC
:1010A000000800BF94F82000012802D10220BDE80A
:1010B000F081012084F8200000BF94F8210001286D
:1010C00017D1022084F821000020A0632068006866
:1010D00020F00100216808603B4632462946204640
:1010E000FFF764F92068006840F00100216808609B
:1010F00006E000BF002084F8200000BF4FF0020887
:101100004046D4E778B503460022CBE0012696405E
:101110000D6805EA0604002C72D04D68022D02D03D
:101120004D68122D13D1D60803F1200555F826007D
:101130005507EE0E0F25B540A8435607F60E0D696C
:10114000B5402843D60803F1200545F82600186865
:1011500056000325B540A8430D7905F00305560058
:10116000B540284318604D68012D08D04D68022D08
:1011700005D04D68112D02D04D68122D13D19868FD
:1011800056000325B540A8435600CD68B540284316
:101190009860586801259540A8430D79C5F300155E
:1011A000954028435860D86856000325B540A843A9
:1011B00056008D68B5402843D8604D6805F08055CD
:1011C000B5F1805F6DD100BF394DAD6945F00105C6
:1011D000374EB5613546AD6905F00105009500BF94
:1011E00000BF4FEAB635960855F8260095072E0F32
:1011F0000F25B540A843B3F1904F02D1002515E06B
:101200004FE02C4DAB4201D101250FE02A4DAB42FE
:1012100001D102250AE0294DAB4201D1032505E0A9
:10122000274DAB4201D1042500E005259607360F76
:10123000B5402843234D960845F82600224D2868DE
:10124000A0434D6805F48035B5F5803F00D12043BB
:101250001D4D28602D1D2868A0434D6805F40035FC
:10126000B5F5003F00D12043174D2D1D28602D1DE1
:101270002868A0434D6805F48015B5F5801F00D19E
:101280002043114D083528602D1D2868A0434D6866
:1012900005F40015B5F5001F00D120430A4D0C35AB
:1012A0002860521C0D68D540002D7FF42FAF78BD0B
:1012B000001002400004004800080048000C0048EC
:1012C00000100048080001400004014042690A4043
:1012D00012B10A04826100E0816170470AB1816144
:1012E00000E0816270474FF08040406A7047000024
:1012F00003480068034909780844014908607047B9
:10130000F0000020F800002010B50848006840F008
:10131000100006490860032000F08EF8002000F05D
:1013200007F800F02BF8002010BD0000002002405C
:1013300070B504460E4800784FF47A71B1FBF0F0B6
:101340000C490968B1FBF0F5284601F0C9F808B16D
:10135000012070BD102C07D200222146501E00F043
:101360002DF80548046001E00120F2E70020F0E7D5
:10137000F8000020FC000020F400002008B500BFA9
:101380000D48806940F001000B498861084680697A
:1013900000F00100009000BF00BF00BF0846C06918
:1013A00040F08050C8610846C06900F0805000904D
:1013B00000BF00BF08BD0000001002402DE9F05F33
:1013C00080460D461646002701F086FF074639463F
:1013D0002A46334601F00700C0F1070ABAF1040FAC
:1013E00002D94FF0040A01E0C0F1070AD14600F12A
:1013F000040ABAF1070F02D24FF0000A01E0A0F18F
:10140000030AD4464FF0010A0AFA09FAAAF1010ABE
:101410000AEA020A0AFA0CFA4FF0010B0BFA0CFB6B
:10142000ABF1010B0BEA030B4AEA0B0421464046E1
:1014300001F05AFFBDE8F09F00BF00F00702064B25
:1014400019684FF6FF031940044B0B4343EA02218E
:10145000014B196000BF70470CED00E00000FA0579
:10146000F8B5044600260025206800F48030B0F569
:10147000803F74D10027A248C06900F0805070B945
:1014800000BF9F48C06940F080509D49C861084630
:10149000C06900F08050009000BF00BF012799484C
:1014A000006800F48070B0B99648006840F480701D
:1014B00094490860FFF717FF064606E0FFF713FFA1
:1014C000801B642801D90320F8BD8E48006800F411
:1014D00080700028F2D08A48006A00F44075002D20
:1014E0006BD0A08800F44070A84266D08448006A9F
:1014F00020F440750120010491FAA1F1B1FA81F1C3
:10150000814A02EB8101C1F800040021000490FA35
:10151000A0F0B0FA80F002EB8000C0F80014784828
:10152000056205F00100B8B3FFF7DDFE064608E0EE
:10153000FFF7D9FE801B41F28831884201D9032090
:10154000C2E74020022191FAA1F1B1FA81F10843EA
:101550000121B1EB601F03D1694800681FE03CE046
:101560004020022191FAA1F1B1FA81F10843022150
:10157000B1EB601F02D16248006A10E040200221F6
:1015800091FAA1F1B1FA81F108430421B1EB601F96
:1015900003D15B48406802E00FE05948406A4021AF
:1015A000022292FAA2F2B2FA82F2114301F01F0271
:1015B0000121914008400028BAD05148006A20F427
:1015C0004070616808434E490862012F04D1084603
:1015D000C06920F08050C86100BF207800F0010091
:1015E00038B14748006B20F00300A1680843444924
:1015F0000863207800F00200022807D14048006B01
:1016000020F44030E16808433D490863207800F049
:101610000400042807D13A48006B20F440202169D7
:10162000084337490863207800F02000202807D1BC
:101630003348006B20F01000E1690843304908632B
:10164000206800F40030B0F5003F07D12C48406816
:1016500020F48000216B084329494860207800F07D
:101660004000402807D12648006B20F02000216A66
:10167000084323490863207800F00800082807D1B0
:101680001F48006B20F44010616908431C4908633F
:10169000207800F01000102807D11948006B20F4C2
:1016A0004000A169084316490863208800F40070CF
:1016B000B0F5007F07D11248406820F40000A16A0D
:1016C00008430F494860207800F08000802807D147
:1016D0000B48C06A20F4F870616A08430849C86280
:1016E000208800F48050B0F5805F07D10448006B7B
:1016F00020F48070E16A0843014908630020E3E6B2
:1017000000100240007000400000424270B50446E4
:101710000D4600260CB9012070BDA248006800F0FB
:101720000700A8420ED29F48006820F00700284317
:101730009C4908600846006800F00700A84201D0F4
:101740000120E9E7207800F00200022807D196483E
:10175000406820F0F000A168084393494860207871
:1017600000F0010000287CD0606801283BD12020D7
:10177000010391FAA1F1B1FA81F108430121B1EB22
:10178000601F02D1884800681DE02020010391FA03
:10179000A1F1B1FA81F108430221B1EB601F02D13E
:1017A0008148006A0FE02020010391FAA1F1B1FA0B
:1017B00081F108430421B1EB601F02D17A484068EF
:1017C00001E07948406A20210A0392FAA2F2B2FAB3
:1017D00082F2114301F01F020121914008400028CC
:1017E0007CD1012098E7606802283BD120200105C8
:1017F00091FAA1F1B1FA81F108430121B1EB601F27
:1018000002D1694800681DE02020010591FAA1F18C
:10181000B1FA81F108430221B1EB601F02D16248A5
:10182000006A0FE02020010591FAA1F1B1FA81F1DF
:1018300008430421B1EB601F02D15B48406801E01E
:101840005948406A20210A0592FAA2F2B2FA82F2BD
:10185000114301F01F02012191400840E8BB012023
:101860005AE758E02020022191FAA1F1B1FA81F162
:1018700008430121B1EB601F02D14B4800681DE015
:101880002020022191FAA1F1B1FA81F1084302214D
:10189000B1EB601F02D14448006A0FE02020022112
:1018A00091FAA1F1B1FA81F108430421B1EB601F73
:1018B00002D13D48406801E03B48406A20210222B5
:1018C00092FAA2F2B2FA82F2114301F01F02012150
:1018D0009140084008B901201EE7FFE73248406800
:1018E00020F00300616808432F494860FFF7FBFCC4
:1018F000064608E0FFF7F7FC801B41F2883188427A
:1019000001D9032008E72848406800F00C0061680E
:10191000B0EB810FEED12348006800F00700A84229
:101920000ED92048006820F0070028431D490860B0
:101930000846006800F00700A84201D00120EBE64D
:10194000207800F00400042807D11748406820F4EC
:10195000E060E168084314494860207800F008001E
:10196000082808D11048406820F46050216940EAF6
:10197000C1000D49486000F051F80B49496801F079
:10198000F001F02292FAA2F2B2FA82F2D140074AB2
:10199000515CC8400649086006480068FFF7C8FC6B
:1019A0000020B9E60020024000100240E43C00089C
:1019B000FC000020F400002001480068704700008F
:1019C000FC00002000B5FFF7F7FF0749496801F464
:1019D000E0614FF4E06292FAA2F2B2FA82F2D140F0
:1019E000024A515CC84000BD00100240F43C0008AF
:1019F00000B5FFF7E1FF0749496801F460514FF472
:101A0000605292FAA2F2B2FA82F2D140024A515CDA
:101A1000C84000BD00100240F43C00082DE9F04130
:101A20000024002500270026A0461F48446804F033
:101A30000C0078B3042802D008282CD102E0DFF88B
:101A40006C802CE004F470104FF4701191FAA1F145
:101A5000B1FA81F1C84016490E5C1348C06A00F023
:101A60000F000F2191FAA1F1B1FA81F1C84011499B
:101A70000D5C04F4803040B12A4600230B4819461F
:101A8000FEF7A0FBA0FB067102E00B48A0FB06716D
:101A9000B84604E000E000BFDFF8108000BF00BFE0
:101AA0004046BDE8F08100000010024000127A00BC
:101AB000C43C0008D43C000800093D00F8B50446C9
:101AC0000CB90120F8BD207800F0010000287BD07F
:101AD000FA48406800F00C0004280CD0F748406831
:101AE00000F00C00082845D1F448406800F480302C
:101AF000B0F5803F3ED12020010391FAA1F1B1FA67
:101B000081F108430121B1EB601F02D1EB4800686D
:101B10001DE02020010391FAA1F1B1FA81F10843FF
:101B20000221B1EB601F02D1E448006A0FE02020DF
:101B3000010391FAA1F1B1FA81F108430421B1EB5B
:101B4000601F02D1DD48406801E0DC48406A202186
:101B50000A0392FAA2F2B2FA82F2114301F01F02D2
:101B60000121914008400028B1D0606800282BD1A5
:101B70000120A7E700BF6068B0F5803F06D1CF48DD
:101B8000006840F48030CD49086029E0606858B9A9
:101B9000CA48006820F48030C849086008460068D8
:101BA00020F4802008601BE06068B0F5A02F0CD105
:101BB000C248006840F48020C049086008460068B8
:101BC00040F4803008600BE0A1E0BC48006820F4DD
:101BD0008030BA4908600846006820F48020086018
:101BE00000BFB648C06A20F00F00A1680843B3499F
:101BF000C8626068A0B3FFF776FB054606E0FFF712
:101C000072FB401B642801D903205BE720200103FD
:101C100091FAA1F1B1FA81F108430121B1EB601F02
:101C200002D1A64800681EE02020010391FAA1F12C
:101C3000B1FA81F108430221B1EB601F02D19F4844
:101C4000006A10E02020010391FAA1F1B1FA81F1BC
:101C500008430421B1EB601F03D19848406802E0BB
:101C600010E09648406A20210A0392FAA2F2B2FAE2
:101C700082F2114301F01F02012191400840002827
:101C8000BDD044E0FFF72FFB054606E0FFF72BFB36
:101C9000401B642801D9032014E72020010391FA96
:101CA000A1F1B1FA81F108430121B1EB601F02D12A
:101CB000824800681DE02020010391FAA1F1B1FAE9
:101CC00081F108430221B1EB601F02D17B48006A19
:101CD0000FE02020010391FAA1F1B1FA81F108434C
:101CE0000421B1EB601F02D17448406801E07348E1
:101CF000406A20210A0392FAA2F2B2FA82F2114358
:101D000001F01F020121914008400028BED1207837
:101D100000F0020002285CD16848406800F00C0026
:101D200050B16648406800F00C00082852D1634862
:101D3000406800F48030E8BB2020022191FAA1F134
:101D4000B1FA81F108430121B1EB601F02D15B4878
:101D500000681DE02020022191FAA1F1B1FA81F181
:101D600008430221B1EB601F02D15448006A0FE022
:101D70002020022191FAA1F1B1FA81F10843042156
:101D8000B1EB601F02D14D48406801E04B48406A0A
:101D90002021022292FAA2F2B2FA82F2114301F059
:101DA0001F0201219140084028B12069012802D07A
:101DB000012087E60EE04148006820F0F800F82294
:101DC00092FAA2F2B2FA82F26169914008433B4969
:101DD0000860B1E0206970B3012191FAA1F0B0FA76
:101DE00080F0374A42F82010FFF77DFA054606E0FA
:101DF000FFF779FA401B022801D9032062E6202070
:101E0000022191FAA1F1B1FA81F108430121B1EB6C
:101E1000601F02D1294800681EE02020022191FAAB
:101E2000A1F1B1FA81F108430221B1EB601F03D1A6
:101E30002248006A10E02CE02020022191FAA1F152
:101E4000B1FA81F108430421B1EB601F02D11B48B4
:101E5000406801E01948406A2021022292FAA2F269
:101E6000B2FA82F2114301F01F02012191400840B1
:101E70000028BDD01148006820F0F800F82292FA3E
:101E8000A2F2B2FA82F26169914008430B490860FC
:101E900052E00020012191FAA1F1B1FA81F1084A42
:101EA00042F82100FFF71FFA05460BE0FFF71BFA87
:101EB000401B022806D9032004E60000001002405F
:101EC000000042422020022191FAA1F1B1FA81F1F1
:101ED00008430121B1EB601F02D1FB4800681DE0FF
:101EE0002020022191FAA1F1B1FA81F108430221E7
:101EF000B1EB601F02D1F448006A0FE020200221FC
:101F000091FAA1F1B1FA81F108430421B1EB601F0C
:101F100002D1ED48406801E0EB48406A20210222EE
:101F200092FAA2F2B2FA82F2114301F01F020121E9
:101F3000914008400028B9D1207800F00800082816
:101F400051D1A06980B3012191FAA1F0B0FA80F0DB
:101F5000DE4A02EB8000C0F88014FFF7C4F90546A2
:101F600006E0FFF7C0F9401B022801D90320A9E5CC
:101F70006020022191FAA1F1B1FA81F10843012117
:101F8000B1EB601F02D1D04800681EE06020022142
:101F900091FAA1F1B1FA81F108430221B1EB601F7E
:101FA00003D1C948006A10E01EE06020022191FAC6
:101FB000A1F1B1FA81F108430421B1EB601F02D114
:101FC000C148406801E0C048406A6021022292FA9C
:101FD000A2F2B2FA82F2114301F01F0201219140F4
:101FE00008400028BDD04FE00020012191FAA1F166
:101FF000B1FA81F1B54A02EB8101C1F88004FFF723
:1020000072F9054606E0FFF76EF9401B022801D978
:10201000032057E56020022191FAA1F1B1FA81F184
:1020200008430121B1EB601F02D1A74800681DE001
:102030006020022191FAA1F1B1FA81F10843022155
:10204000B1EB601F02D1A048006A0FE060200221BE
:1020500091FAA1F1B1FA81F108430421B1EB601FBB
:1020600002D19948406801E09748406A6021022205
:1020700092FAA2F2B2FA82F2114301F01F02012198
:10208000914008400028BED1207800F004000428C8
:1020900073D100278C48C06900F0805070B900BF30
:1020A0008948C06940F080508749C8610846C069C6
:1020B00000F08050009000BF00BF012784480068F6
:1020C00000F48070B0B98248006840F480708049A4
:1020D0000860FFF708F9054606E0FFF704F9401B22
:1020E000642801D90320EDE47948006800F4807089
:1020F0000028F2D000BFE068012806D17248006ACB
:1021000040F001007049086227E0E06858B96E4865
:10211000006A20F001006C4908620846006A20F05D
:102120000400086219E0E06805280BD16648006ADF
:1021300040F00400644908620846006A40F001006B
:1021400008620AE06048006A20F001005E49086207
:102150000846006A20F00400086200BFE068B8B3D7
:10216000FFF7C1F8054609E0FFF7BDF8401B41F253
:102170008831884202D90320A4E48BE04020022168
:1021800091FAA1F1B1FA81F108430121B1EB601F8D
:1021900002D14D4800681EE04020022191FAA1F1D1
:1021A000B1FA81F108430221B1EB601F02D1464828
:1021B000006A10E04020022191FAA1F1B1FA81F108
:1021C00008430421B1EB601F03D13F48406802E09F
:1021D00010E03D48406A4021022292FAA2F2B2FA8F
:1021E00082F2114301F01F020121914008400028B2
:1021F000BAD046E0FFF777F8054608E0FFF773F836
:10220000401B41F28831884201D903205AE4402022
:10221000022191FAA1F1B1FA81F108430121B1EB58
:10222000601F02D1284800681DE04020022191FA79
:10223000A1F1B1FA81F108430221B1EB601F02D193
:102240002148006A0FE04020022191FAA1F1B1FA81
:1022500081F108430421B1EB601F02D11A484068A4
:1022600001E01948406A4021022292FAA2F2B2FA31
:1022700082F2114301F01F02012191400840002821
:10228000BCD1012F05D11048C06920F080500E4903
:10229000C86100BFE069002874D00B48406800F0B6
:1022A0000C0008286FD0E06902286DD100204FF0A3
:1022B000807191FAA1F1B1FA81F1044A42F821004A
:1022C000FFF711F805460CE0001002400000424202
:1022D00000700040FFF707F8401B022801D90320D7
:1022E00047E42020010591FAA1F1B1FA81F10843F8
:1022F0000121B1EB601F02D1774800681DE020206A
:10230000010591FAA1F1B1FA81F108430221B1EB83
:10231000601F02D17048006A0FE02020010591FA89
:10232000A1F1B1FA81F108430421B1EB601F02D1A0
:102330006948406801E06848406A20210A0592FA2D
:10234000A2F2B2FA82F2114301F01F020121914080
:1023500008400028BED1D4E9081008435E49496806
:1023600021F4741108435C4948600120010691FA88
:10237000A1F1B1FA81F1594A42F82100FEF7B3FF09
:10238000054609E0A5E092E041E0FEF7ACFF401B06
:10239000022801D9032038E42020010591FAA1F197
:1023A000B1FA81F108430121B1EB601F02D14A4823
:1023B00000681DE02020010591FAA1F1B1FA81F138
:1023C00008430221B1EB601F02D14348006A0FE0CD
:1023D0002020010591FAA1F1B1FA81F1084304210D
:1023E000B1EB601F02D13C48406801E03A48406AC6
:1023F00020210A0592FAA2F2B2FA82F2114301F008
:102400001F020121914008400028BED061E0002059
:102410004FF0807191FAA1F1B1FA81F12F4A42F89F
:102420002100FEF760FF054606E0FEF75CFF401B5B
:10243000022801D903202FE42020010591FAA1F1FF
:10244000B1FA81F108430121B1EB601F02D12248AA
:1024500000681DE02020010591FAA1F1B1FA81F197
:1024600008430221B1EB601F02D11B48006A0FE054
:102470002020010591FAA1F1B1FA81F1084304216C
:10248000B1EB601F02D11448406801E01248406A75
:1024900020210A0592FAA2F2B2FA82F2114301F067
:1024A0001F020121914008400028BED111E0E069DF
:1024B000012800D17DE40848466806F48031206A8E
:1024C000814204D106F47011606A814201D001207A
:1024D0006FE400206DE40000001002400000424262
:1024E00070B504462546681EB0F1807F01D30120F7
:1024F0000FE0681E4FF0E02148610F214FF0FF30E0
:1025000000F0F2FE00204FF0E02188610720086112
:10251000002070BD30B502460B4600BF92F83C006B
:10252000012801D1022030BD012082F83C0000BF0B
:10253000022082F83D001068416810688468194DD7
:102540001068A84203D121F470015868014321F0BA
:1025500070011868014310684160124D1068A8426C
:102560000FD01068B0F1804F0BD00F4D1068A8420B
:1025700007D00E4D1068A84203D00D4D1068A84238
:1025800005D124F080049868044310688460012019
:1025900082F83D0000BF002082F83C0000BF00BF71
:1025A000C1E70000002C014000040040000800408A
:1025B0000040014010B504460CB9012010BD94F84C
:1025C0003D0028B9002084F83C00204600F00CF8BB
:1025D000022084F83D00211D206800F065FB0120E9
:1025E00084F83D000020E9E708B50168B1F1804FAB
:1025F0000DD100BF0649C96941F00101044AD1610A
:102600001146C96901F00101009100BF00BF08BD7A
:10261000001002400146022081F83D0008688068F1
:10262000094B00EA0302062A08D0B2F5803F05D024
:102630000868006840F001000B681860012081F80C
:102640003D00002070470000070001002DE9F04127
:1026500004460D4600BF94F83C00012802D1022038
:10266000BDE8F081012084F83C0000BF022084F81E
:102670003D00206886683748064026F47F4620687B
:1026800086602868502833D00CDC202850D004DC29
:1026900000284BD0102851D149E0302849D040289B
:1026A0004CD139E060282DD0702807D0B0F5805F7C
:1026B00003D0B0F5005F41D10DE040E0D5E9021351
:1026C0006A68206800F042FB2068866846F077065A
:1026D0002068866033E0D5E902136A68206800F05C
:1026E00035FB2068806840F480402168886026E0DF
:1026F000EA686968206800F03DFB5021206800F01E
:1027000030FB1CE0EA686968206800F046FB602145
:10271000206800F026FB12E0EA686968206800F093
:1027200029FB4021206800F01CFB08E000BF00BF2F
:1027300000BF2968206800F014FB00E000BF00BF64
:10274000012084F83D0000BF002084F83C0000BF59
:1027500000BF85E788FFFEFF10B504460CB90120D5
:1027600010BDA06900B100E000BF606F28B9002073
:1027700084F87000204600F029F824206067206863
:10278000006820F0010021680860204600F0CCFBC2
:10279000012800D1E4E7606A10B1204600F011FB87
:1027A0002068406820F49040216848602068806874
:1027B00020F02A00216888602068006840F001004D
:1027C00021680860204600F078FBC9E710B586B0A4
:1027D0000446142101A8FDF74FFD394920688842BD
:1027E0006BD100BF3748806940F48040354988612B
:1027F0000846806900F48040009000BF00BF00BF21
:102800000846406940F4002048610846406900F4E9
:102810000020009000BF00BF102001900220029015
:1028200000200390032004900720059001A926486A
:10283000FEF768FC202001901220029001200390F6
:10284000032004900720059001A91F48FEF75AFCB9
:102850001E481F4908600020486000211C48816014
:102860008021C16000210161416181614FF480518B
:10287000C161FEF7E3FB08B1FDF7AFFD00BF1448EF
:10288000E066446200BF1148143812490860102005
:10289000486000210F4881608021C16000210161F2
:1028A00041618161C161FEF7C9FB08B1FDF795FD8A
:1028B00000BF0848A066446200BF06B010BD00001B
:1028C0000038014000100240000800485800024053
:1028D000A8020020EC02002000BFFEE700B589B08E
:1028E000002006900790089018216846FDF7C4FC68
:1028F0004FF0A0401C4908600020486000211A48A1
:1029000081600161417680F82010C16201218162FD
:102910000021C1600121C161002180F83010042133
:102920004161002101764163FEF704F808B1FDF72B
:1029300054FD0020069006A90B48FDF74FFD08B195
:10294000FDF74BFD0820009001200190002003902E
:1029500002900490059069460348FDF7DDFD08B13B
:10296000FDF73BFD09B000BD2001002000B587B098
:10297000182101A8FDF780FC1848194908600020BB
:1029800048600021164881600161417680F820107E
:10299000C162012181620021C1600121C161002168
:1029A00080F8301004214161002101764163FDF778
:1029B000C1FF08B1FDF711FD032001900120029035
:1029C0000020049003900590069001A90448FDF7AB
:1029D000A3FD08B1FDF701FD07B000BD00010050E7
:1029E0007001002010B50D480D49086009204860AD
:1029F00000210B488160C1604FF4803101610021EA
:102A00004161017641768176C17601774177FEF7A3
:102A1000D1F908B1FDF7E1FC10BD000000640040F1
:102A2000C001002008B500BF0648406940F0010021
:102A3000044948610846406900F00100009000BF69
:102A400000BF08BD0010024000B587B0142102A8E5
:102A5000FDF712FC00BF2D48406940F400202B49CF
:102A600048610846406900F40020019000BF00BFA3
:102A700000BF0846406940F480004861084640694C
:102A800000F48000019000BF00BF00BF084640690D
:102A900040F4003048610846406900F4003001907D
:102AA00000BF00BF00BF0846406940F48020486175
:102AB0000846406900F48020019000BF00BF012259
:102AC00051031348FEF70AFC00224FF4025111484B
:102AD000FEF704FC4FF400500290112003900120F7
:102AE00004900020059002A90948FEF70BFB4FF463
:102AF000025002900120039000200490059002A94A
:102B00000448FEF7FFFA07B000BD000000100240C5
:102B1000000800480004004800B587B0002003907A
:102B20000490059006900090019002904FF0804034
:102B30001649086047204860002114488160491EFA
:102B4000C1604FF48071016180218161FFF732FD26
:102B500008B1FDF742FC4FF48050039003A90B48E5
:102B6000FFF774FD08B1FDF738FC2020009000202D
:102B7000029069460548FFF7CDFC08B1FDF72DFC32
:102B80000248FFF747FD07B000BD0000E801002044
:102B900010B51148114908604FF4E1304860002138
:102BA0000E488160C16001610C2141610021816199
:102BB0004FF40041C16100210162302007494862A1
:102BC0004FF48051054881634900C163FFF7C4FD9C
:102BD00008B1FDF702FC10BD0038014028020020BA
:102BE00000BFFEE7704770477047000010B54FF414
:102BF00000510348FEF76AFBFEF77AFB10BD0000A8
:102C00000004004800B59DB0282113A8FDF734FB4F
:102C100014210EA8FDF730FB342101A8FDF72CFB91
:102C200001201390000414900020159001201790AB
:102C300002201A90C1031B914FF4E0111C9113A8BC
:102C4000FEF73CFF08B1FDF7C8FB0F200E900220F5
:102C50000F90002010904FF480601190002012908F
:102C600002210EA8FEF752FD08B1FDF7B6FB812048
:102C700001900120039000020A9001A8FEF7F0FBEA
:102C800008B1FDF7AAFB1DB000BD000005480068B3
:102C900040F47000034908604FF00060014980393A
:102CA0000860704788ED00E010B50268214B98423B
:102CB00008D0B0F1804F05D01F4B984202D01F4B77
:102CC000984203D122F070024B681A43194B984284
:102CD00011D0B0F1804F0ED0174B98420BD0174B4C
:102CE000984208D0164B984205D0164B984202D015
:102CF000154B984203D122F44072CB681A4322F05C
:102D000080034C6943EA040202608B68C3620B686B
:102D10008362084B984208D0094B984205D0094B72
:102D2000984202D0084B984201D10B6903630123FA
:102D3000436110BD002C0140000400400008004029
:102D400000400140004401400048014030B50C46BD
:102D5000816821F47F4142EA0325254329438160AC
:102D600030BD0A46816821F0700142F00703194323
:102D70008160704730B50B461446026A056A25F03B
:102D800001050562816921F0F00141EA041122F098
:102D90000A021A438161026230BD30B50B46144607
:102DA000056A25F0100505628169026A21F4704107
:102DB00041EA043122F0A00242EA03128161026278
:102DC00030BD90F8241001F0010139B10168496863
:102DD00021F40031826A11430268516090F8241096
:102DE00001F00201022907D10168496821F480310C
:102DF000C26A11430268516090F8241001F0040186
:102E0000042907D10168496821F48021026B11432C
:102E10000268516090F8241001F00801082907D1D8
:102E20000168496821F40041426B11430268516016
:102E300090F8241001F01001102907D10168896869
:102E400021F48051826B11430268916090F8241044
:102E500001F02001202907D10168896821F400517F
:102E6000C26B11430268916090F8241001F0400198
:102E7000402913D10168496821F48011026C114383
:102E800002685160016CB1F5801F07D10168496883
:102E900021F4C001426C11430268516090F8241083
:102EA00001F08001802907D10168496821F40021DF
:102EB000826C114302685160704738B504460020A7
:102EC000E067FEF710FA05462068006800F0080089
:102ED00008280CD16FF07E402B4600224FF40011E1
:102EE0000090204600F09CF908B1032038BD20680E
:102EF000006800F0040004280CD16FF07E402B46DF
:102F000000224FF480010090204600F089F908B1BA
:102F10000320EBE720206067A06700BF002084F853
:102F2000700000BF00BFE1E72DE9F047044600272D
:102F3000BA462169A068084361690843E16940EA2B
:102F400001082068006849F20C61884340EA0800E3
:102F5000216808602068406820F44050E168084318
:102F600021684860D4F81880206A40EA0808206880
:102F7000806820F4306040EA08002168886000BF63
:102F80009F492068884216D19E48006B00F00300DC
:102F900030B1012808D0022808D0032808D101E068
:102FA000012507E0022505E0042503E0082501E0EE
:102FB000102500BF78E094492068884219D19148D3
:102FC000006B00F4403048B1B0F5803F0AD0B0F556
:102FD000003F09D0B0F5403F08D101E0002507E0EF
:102FE000022505E0042503E0082501E0102500BFC7
:102FF0005AE086492068884219D18248006B00F463
:10300000402048B1B0F5802F0AD0B0F5002F09D08C
:10301000B0F5402F08D101E0002507E0022505E0CA
:10302000042503E0082501E0102500BF3CE07849B5
:103030002068884219D17348006B00F4401048B1F1
:10304000B0F5801F0AD0B0F5001F09D0B0F5401FC1
:1030500008D101E0002507E0022505E0042503E092
:10306000082501E0102500BF1EE06A49206888425B
:1030700019D16448006B00F4400048B1B0F5800FEE
:103080000AD0B0F5000F09D0B0F5400F08D101E02B
:10309000002507E0022505E0042503E0082501E0FE
:1030A000102500BF00E0102500BFE069B0F5004F1B
:1030B00054D1092D3AD2DFE805F005101B39243927
:1030C00039392F00FEF77EFC06467000616800EB80
:1030D0005100B0FBF1F087B22BE0FEF789FC064609
:1030E0007000616800EB5100B0FBF1F087B220E0A6
:1030F0004949606801EB50006168B0FBF1F087B2AC
:1031000017E0FEF78BFC06467000616800EB51008B
:10311000B0FBF1F087B20CE04FF48031606801EB56
:1031200050006168B0FBF1F087B202E04FF0010A95
:1031300000BF00BF102F0ED3B7F5803F0BD24FF664
:10314000F07007EA0009C7F3420049EA0009206865
:10315000C0F80C904DE04FF0010A4AE0092D3AD238
:10316000DFE805F005101B39243939392F00FEF747
:1031700029FC0646606806EB50006168B0FBF1F080
:1031800087B22BE0FEF734FC0646606806EB500081
:103190006168B0FBF1F087B220E02049606801EB84
:1031A00050006168B0FBF1F087B217E0FEF736FC23
:1031B0000646606806EB50006168B0FBF1F087B22C
:1031C0000CE04FF40041606801EB50006168B0FB17
:1031D000F1F087B202E04FF0010A00BF00BF102FEC
:1031E00005D3B7F5803F02D22068C76001E04FF0F9
:1031F000010A0020206660665046BDE8F0870000A6
:1032000000380140001002400044004000480040E7
:10321000004C0040005000400024F40000127A00EE
:103220002DE9F04104460D4617469846069E45E0B6
:10323000701C002842D0FEF756F8A0EB0800B04200
:1032400000D8B6B92068006820F4D0702168086002
:103250002068806820F00100216888602020606775
:10326000A06700BF002084F8700000BF0320BDE805
:10327000F0812068006800F00400F8B12068C0699F
:10328000C0F3C020D0B14FF400602168086220680C
:10329000006820F4D070216808602068806820F001
:1032A00001002168886020206067A067E06700BF98
:1032B000002084F8700000BF0320D8E72068C069B0
:1032C0002840A84201D1012000E00020B842AFD040
:1032D0000020CCE700BFFEE702480068C0F30220F0
:1032E000704700000CED00E010B5002804DB0A0771
:1032F000130E054A135406E00A07140E034A00F0A1
:103300000F031B1FD45410BD00E400E018ED00E0D3
:1033100002E008C8121F08C1002AFAD1704770479E
:10332000002001E001C1121F002AFBD170470000FC
:10333000F0B591B006460C46002518210BA8FCF705
:103340009BFF00BF032D38DA00200E9005EB8500AF
:1033500004EB8000C0790D900D9878B905EB8500DD
:1033600054F820000B900B990E9840EA41513068B8
:1033700000F5C07000EB0510016010E005EB850062
:1033800054F820000C90DDE90C1040EAC1000E99C1
:103390000843316801F5C07101EB0511086005EBC8
:1033A000850004EB800080790F900F99306800F55C
:1033B000C07000EB0510416008E000200E9005EBA6
:1033C000850004EB8000C0790D9004E02846691C5C
:1033D000CDB20528B6DB00BF002006900790012083
:1033E000089034F83C0F4005000C01902078002133
:1033F00041EA405080B202904FF6FF700390049073
:1034000000200590012009900E200A9001A9304665
:10341000FDF74AFC0120069000200790012008904B
:10342000A08A4005000C0190207D3C3C002141EA2F
:10343000405080B202904FF6FF700390049001203C
:10344000059009900E200A9001A93046FDF72CFC4A
:103450003046FDF7C0FD1848006840F001001649ED
:1034600008601648D0F8900140F001011348C0F8F8
:103470009011D0F8A00140F001011048C0F8A0114F
:10348000FDF731FF074600BFFDF72DFFC01B42F2DD
:1034900010718842F8D309480C30006840F02000D1
:1034A00006490C310860081D006840F02000091D25
:1034B000086011B0F0BD000080650040006400406D
:1034C0000649096801600549091D09684160044908
:1034D000096841F02001024A11607047B865004058
:1034E0000C6400400649096801600549091D096826
:1034F00041600449096841F02001024A11607047A7
:10350000C8650040106400400449497929B1044964
:1035100002680A60091D42680A60704700000020C6
:10352000886500400849497E69B1084902680A6017
:10353000091D42680A6005490839096841F001021D
:10354000024908390A607047000000209865004071
:10355000054991F82D1029B1044902680A60091D36
:1035600042680A607047000000000020A865004023
:1035700001785A292FD14178552908D11E4A41682E
:1035800011600021018035211C4A117032E0417820
:10359000AA292FD11949097835292BD10021174A99
:1035A000117001808178012904D0022907D00429F3
:1035B0000FD109E00179104A126811700AE0818880
:1035C0000D4A1268118005E00B4A416812681160CB
:1035D00000E000BF0EE001783A290BD10021017014
:1035E000C278074B416843F832108178C27803EB08
:1035F000C2021171704700006C00002068000020BA
:1036000000010020E8B0002400252022E74960A83E
:10361000FCF719FEFDF778FEFFF7F4FAFFF714FA4E
:10362000FFF700FAFFF7B4FAFFF776FAFFF7DAF9D7
:10363000FFF754F9FFF79AF900204FF0E0210861F5
:10364000DB48FEF7E7FF3822DA494FA8FCF7FBFD1D
:10365000D848806B5D90D749C86B096C52225F9146
:103660005E90D5492FA8FCF7EEFDD348B0F8520084
:10367000ADF80E01D048416D4491B0F85800ADF856
:103680001401CD48B0F85A00ADF816011822CA4905
:103690005C3146A8FCF7D7FDC748406F4C90C64840
:1036A000806F4D90C448C06F4E900620C34944229D
:1036B000CDE92D104FA91CA8FCF7C5FD702233A938
:1036C0006846FCF7C0FD2FA80FC800F0A4F9382207
:1036D000BB494FA8FCF7B7FDB948806B5D90B8496E
:1036E000C86B096C52225F915E90B3492FA8FCF71A
:1036F000AAFDB148B0F85200ADF80E01AE48416DD8
:103700004491B0F85800ADF81401AB48B0F85A0035
:10371000ADF816011822A8495C3146A8FCF793FDC4
:10372000A548406F4C90A448806F4D90A248C06F50
:103730004E900620A3494422CDE92D104FA91CA884
:10374000FCF781FD702233A96846FCF77CFD2FA8A9
:103750000FC800F08FF996480068406A64906420B2
:1037600099490860404299490860974800889849FB
:103770000880964800889749088023209649087257
:10378000002195484172202181720121C172904827
:103790000178914801738E480088010A8E48417370
:1037A00000218173C173232180F83010002180F83B
:1037B0003110202180F83210022180F83310854822
:1037C0000178854880F8341082480088010A8248D0
:1037D00080F83510002180F8361080F83710014647
:1037E0007E48FFF7A5FDE0E071480068406A6590FB
:1037F00064996598401A6390609963988842F2D3FF
:10380000659864906A480068406A6690002D7DD192
:10381000012569037248FDF759FD382265494FA813
:10382000FCF711FD6348806B5D906249C86B096CC1
:1038300052225F915E9060492FA8FCF704FD5E481C
:10384000B0F85200ADF80E015B48416D4491B0F8FC
:103850005800ADF814015848B0F85A00ADF81601F8
:10386000182255495C3146A8FCF7EDFC5248406FE0
:103870004C905148806F4D904F48C06F4E9006203D
:103880004E494422CDE92D104FA91CA8FCF7DBFCC2
:10389000702233A96846FCF7D6FC2FA80FC800F0A9
:1038A000A3F8382246494FA8FCF7CDFC4448806B6A
:1038B0005D904349C86B096C52225F915E903E490E
:1038C0002FA8FCF7C0FC3C48B0F85200ADF80E0140
:1038D0003948416D4491B0F85800ADF814013648AC
:1038E000B0F85A00ADF81601182233495C3146A8E9
:1038F000FCF7A9FC3048406F4C902F48806F4D90EA
:103900002D48C06F4E9006202E4900E010E0442262
:10391000CDE92D104FA91CA8FCF795FC702233A906
:103920006846FCF790FC2FA80FC800F08CF82BE03D
:10393000002534B1012C0ED0022C0DD0032C1CD14B
:103940000FE0264800F0AEF82648006840F001017C
:103950002448016012E011E01F485830FFF708FECC
:103960000CE01E4800F09EF81E482038006840F029
:1039700001001C492039086000E000BF00BF601C46
:10398000C4B2052C00DB002409480068406A659039
:1039900066996598401A679061996798884201D93D
:1039A000679861900C486199C1611DE7A43C0008CB
:1039B000E8010020A8020020280200203003002097
:1039C000EC020020710000209C000020A0000020DC
:1039D000A4000020A600002000000020C00100205C
:1039E00000040048A06500400FB470B5DDE935451E
:1039F0003398006800F4003050B101208DF8B10018
:103A0000049800F124012B46224624A8FDF741FB2F
:103A100070BC5DF814FB0FB470B5DDE93545049852
:103A200000F124012B46224624A8FDF732FB40205A
:103A3000049908620498806840F040000499886006
:103A400070BC5DF814FB0FB470B5DDE935453398F3
:103A5000006800F4005050B101208DF8B1000498C6
:103A600000F128020623214624A8FDF712FB70BCB2
:103A70005DF814FB0FB470B5DDE93545049800F12D
:103A800028020623214624A8FDF703FB40200499C1
:103A900008620498806840F080000499886070BCD7
:103AA0005DF814FB2DE9F047044600252068D0F8A6
:103AB0000480206886682068D0F80C902068D0F8D0
:103AC00010A02068876906F00100C8B101202168B4
:103AD000886006F0020020B171480169083088470B
:103AE0000EE006F0040010B145F4006508E006F0B1
:103AF000080010B145F4805502E02046FDF79AFA1F
:103B000006F48070D0B14FF480702168886006F4AC
:103B1000003020B16248816B303088470EE006F4F7
:103B2000806010B145F4005508E006F4006010B163
:103B300045F4804502E02046FDF77DFA06F480302A
:103B4000D0B14FF480302168886006F4003020B195
:103B50005348816B303088470EE006F4802010B166
:103B600045F4004508E006F4002010B145F4803526
:103B700002E02046FDF760FA09F0100020B145F49C
:103B8000007510202168C86009F0080028B10820DD
:103B90002168C8602046FDF71BFA2068C06800F065
:103BA000030018B13E48C16C443088470AF0100049
:103BB00020B145F480651020216808610AF00800F2
:103BC00028B10820216808612046FDF702FA206824
:103BD000006900F0030018B13148016E5830884781
:103BE00008F0100028B11020216848602046FDF739
:103BF000F1F908F0080028B1082021684860204643
:103C0000FDF71BFA08F0040088B307F0010008B1C3
:103C100045F0010507F0020008B145F0020507F084
:103C2000040008B145F0040507F0700058B307F030
:103C30007000402815D006DC102809D020280AD0B2
:103C4000302818D10AE050280ED0602813D10FE098
:103C500045F0080510E045F010050DE045F02005A1
:103C60000AE045F0400507E045F0800504E00DE07E
:103C700045F4807500E000BF00BF2068806920F037
:103C80007000216888610420216848602DB1606A55
:103C9000284360622046FDF78CF8BDE8F0870000FD
:103CA00000000020F40100000100000000000000FE
:103CB0000000000000000000000000000000000004
:103CC0000000000002030405060708090A0B0C0D9A
:103CD0000E0F10100102030405060708090A0B0C59
:103CE0000D0E0F1000000000000000000102030490
:103CF0000607080900000000010203041C3D00083B
:103D00000000002000010000103300081C3E0008E5
:103D100000010020480600002033000801060000D2
:103D20000001080000000000000000000935000844
:103D3000E207000000000800000000000000000092
:103D40002535000801060000000108000000000001
:103D50000000000051350008810500000002080045
:103D60000000000000000000C1340008D20700007D
:103D7000000208000000000000000000E534000818
:103D800044332211000000000000000000A1A2A3A3
:103D9000A4A5A6A7A8A9AA00000000000000000092
:103DA0000000000000000000000000000000000013
:103DB0000000000000000000000000000000000003
:103DC00000000000000000000000000000000000F3
:103DD00095BFD633FE070000FFFFFF1F0000000065
:103DE0000000000008000000FFFF0000FF000000CE
:103DF000FE070000FFFFFF1F0000000000000000A2
:103E000008000000000000000000000000000000AA
:0C3E1000100000000100000000127A0009
:040000050800018965
:00000001FF
